:020000041100E9
:10A0000003B40148019001BD7511000003B401487B
:10A01000019001BD75A9000003B40148019001BD84
:10A02000C93E000003B40148019001BD9DA9000094
:10A0300003B40148019001BD8944000003B4014804
:10A04000019001BD2144000003B40148019001BD0D
:10A05000750F000003B40148019001BD11300000EC
:10A0600003B40148019001BD53B9000003B4014895
:10A07000019001BDB30E000003B40148019001BD81
:10A080006189000003B40148019001BD1907010076
:10A0900003B40148019001BDA9D8000003B40148F0
:10A0A000019001BDB352010003B40148019001BD0C
:10A0B0000D52010003B40148019001BD8B52010013
:10A0C00003B40148019001BDC1A5000003B40148DB
:10A0D000019001BD9D6A000003B40148019001BDDB
:10A0E000116E000003B40148019001BDE94C01006C
:10A0F00003B40148019001BDCD4C010003B40148F7
:10A10000019001BD51B8000003B40148019001BDA8
:10A1100085C1000003B40148019001BD2DFC000081
:10A1200003B40148019001BD25E7000003B40148D4
:10A13000019001BDEDB8000003B40148019001BDDC
:10A140003148000003B40148019001BDC53F000043
:10A1500003B40148019001BDF5D5000003B40148E6
:10A16000019001BDF1FA000003B40148019001BD66
:10A170005939FF1F03B40148019001BD9946000001
:10A1800003B40148019001BD1547000003B4014824
:10A19000019001BDC5F0000003B40148019001BD6C
:10A1A00079F4000003B40148019001BD63EC0000A4
:10A1B00003B40148019001BD05FF000003B401484C
:10A1C000019001BD3161000003B40148019001BD5F
:10A1D00059E4000003B40148019001BDD5E400003A
:10A1E00003B40148019001BD01BF000003B4014860
:10A1F000019001BD21F1000003B40148019001BDAF
:10A2000039B8000003B40148019001BD77F10000A6
:10A2100003B40148019001BDC1E2000003B401484C
:10A22000019001BD154D010003B40148019001BD2D
:10A230008DE3000003B40148019001BD55110100F8
:10A2400003B40148019001BDA5FD000003B401481D
:10A25000019001BD4D2EFF1F03B40148019001BDC7
:10A26000ADAE000003B40148019001BD456B010093
:10A2700003B40148019001BDF54E010003B401484B
:10A28000019001BD434D010003B40148019001BD9F
:10A290002526000003B40148019001BDC94A010010
:10A2A00003B40148019001BD691F000003B40148D7
:10A2B000019001BD5D17000003B40148019001BD8C
:10A2C0003D4B010003B40148019001BD595201000A
:10A2D00003B40148019001BD5125000003B40148B9
:10A2E000019001BD014C010003B40148019001BD82
:10A2F000594F010003B40148019001BD1D4B0100FD
:10A3000003B40148019001BD8D12000003B401485F
:10A31000019001BD4D1F000003B40148019001BD33
:10A320005522000003B40148019001BDDD52010037
:10A3300003B40148019001BD1D4D010003B4014863
:10A34000019001BD090E000003B40148019001BD58
:10A35000810E000003B40148019001BD017F00009F
:10A3600003B40148019001BDE117000003B40148A6
:10A37000019001BD7918000003B40148019001BDAE
:10A38000D949010003B40148019001BD192800001A
:10A3900003B40148019001BDB117000003B40148A6
:10A3A000019001BDE928000003B40148019001BDFE
:10A3B0005549010003B40148019001BD4551010018
:10A3C00003B40148019001BDF94C010003B40148F8
:10A3D000019001BD291C000003B40148019001BD9A
:10A3E0005D22FF1F03B40148019001BD851F0000DD
:10A3F00003B40148019001BD1147010003B40148B5
:10A40000019001BDD721FF1F03B40148019001BD98
:10A41000B121FF1F03B40148019001BDA94601000D
:10A4200003B40148019001BDE548000003B40148B0
:10A43000019001BD2951010003B40148019001BD03
:10A440005147010038B5044600F0B0F901466846AE
:10A4500001704470210A81706A4603210248FFF7A7
:10A46000CFFD002038BD00001B20000038B5044699
:10A4700000F0C2F90146684601704470210A8170FB
:10A480006A4603210248FFF7BBFD002038BD0000EB
:10A490001A20000008B5002802D000F077FB00E089
:10A4A0001220694608706A4601210248FFF7A8FD9C
:10A4B000002008BD0520000070B50C460546FFF7DA
:10A4C000A5FD21462846FFF7A7FD0446FFF7AAFD94
:10A4D000204670BDFFB5064601208007816881B027
:10A4E0001D46102211438160554F002038603046D0
:10A4F000D730FFF79DFD9D20800034468059FF3600
:10A50000CA3401360028306822462CD00121FFF7DA
:10A5100095FD4B4F2078F863641C2046FFF794FDAF
:10A5200000BA000AE17800020843B863241D2046FF
:10A53000FFF78AFD00BA000AE17800020843786359
:10A54000241D2046FFF780FD00BA000AE1780002D2
:10A55000084338630398029900020843F860039F98
:10A5600000243F1D0EE00021D1E72819401CFFF711
:10A570006BFD0102285D0143324820180160241D53
:10A58000A4B23F1F042FF0DA032F04D0022F08D00B
:10A59000012F0CD011E02819FFF756FD0102090A1E
:10A5A00006E0291948780A780102114300E0295D84
:10A5B000244820180160241DA4B20021214F02E08C
:10A5C000E0190160241DFF2CFADD1D481E4A42607F
:10A5D0000F220261012202604269002AFCD0426916
:10A5E000930701D4520708D4012080078268102104
:10A5F0008A438260002005B0F0BD01600020039A0C
:10A6000011E0C11909682954401C80B20B0A2B546F
:10A61000401C0B0C80B22B54401C80B2090E2954F4
:10A62000401C80B2121F002AEBDC3068401C3060F6
:10A6300001208007826810218A4382600120DAE7C6
:10A640000000044000010440080F0000FFB505466B
:10A6500001208007816881B01E461022114381606D
:10A66000504F002038602846D730FFF7E1FC9D208E
:10A6700080002C464059CA3480350028E86F2246B5
:10A680002BD00021FFF7DAFC464F2078F863641CDA
:10A690002046FFF7D9FC00BA000AE178000208431F
:10A6A000B863241D2046FFF7CFFC00BA000AE1780A
:10A6B000000208437863241D2046FFF7C5FC00BA5A
:10A6C000000AE17800020843386303980299000207
:10A6D0000843F8600024039F0EE00121D2E73019FF
:10A6E000401CFFF7B1FC0102305D01432E482018E9
:10A6F0000160241DA4B23F1F042FF0DA032F04D001
:10A70000022F08D0012F0FD014E03019FFF79CFC66
:10A710000102090A09E03119487809780002084362
:10A7200021496118086003E0315D1F48201801606D
:10A73000241DA4B200211C4B02E0E0180160241D7E
:10A74000FF2CFADD0F221748120242600F2202612D
:10A75000012202604269002AFCD00160039A0020B5
:10A76000121D11E0C11809683154401C80B20C0A56
:10A770003454401C0C0C80B23454401C80B2090E7E
:10A780003154401C80B2121F002AEBDCE86F401CE1
:10A79000E86701208007826810218A43826005B043
:10A7A000F0BD0000000004400001044010B5114A53
:10A7B000A1218900126841438C189D218900095903
:10A7C000012901D00C2010BDFFF744FC0028FAD16C
:10A7D000E01DF93002790621012A06D041710D21D0
:10A7E0002046FFF73DFC002010BDFF202130015521
:10A7F0000221F5E73409FF1F70B50D46134AA12168
:10A800008900126841438C189D218900095901294A
:10A8100001D00C2070BD002D16D0FFF71BFC0028C6
:10A82000F8D110210B1A2A5C1B19E033401CC0B26E
:10A830009A711028F6D30121F820015505212046F0
:10A84000FFF70EFC002070BD122070BD3409FF1F01
:10A85000F8B5069D079C1746002806D0002904D0AD
:10A86000002C04D0012C04D005E01220F8BD2A26CB
:10A8700001E0FF260736134A1770134A1060134889
:10A8800003701348057013480D4604700024B61D6C
:10A8900014E0A1212046890048430B490090096833
:10A8A0004018A1218900FFF7E1FB074900980968DA
:10A8B0004018FF308130C562AD19641CBC42E8DB32
:10A8C0000020F8BD1409FF1F3409FF1F1509FF1FE1
:10A8D0001609FF1F1709FF1F10B5FF2815D0002903
:10A8E00013D0A1229200094B50431A688218FF32FC
:10A8F000C132948B8C80128B0A801A688018FF30CA
:10A90000C130C28BCA80408B488010BD3409FF1F04
:10A91000F8B56B4D0028AB7916D0012B01D0032B75
:10A9200012D168490A78FF2A0ED14A78FF2A0BD142
:10A930008A78FF2A08D1CA78FF2A05D10A79FF2A26
:10A9400002D14979FF2930D05F490A78012A1DD008
:10A9500000265E4C0E702178092970D00A296ED02D
:10A960000B296CD00C296AD00D2968D0052966D036
:10A97000062964D0AA7B002A0AD0012A08D0032A1B
:10A9800006D0022A04D0042A0FD101E00C20F8BD21
:10A99000002B05D0012B03D0022B01D0032B04D1B7
:10A9A0004B4F00286AD0012801D01220F8BDA8889A
:10A9B000012844D0002917D11300FFF75DFB0504DF
:10A9C00008100C082400012020701F200AE002203B
:10A9D0002070202006E004202070222002E00320C6
:10A9E00020702120FFF74EFB2078282101280DD070
:10A9F00002280BD0042809D0032807D007280ED03E
:10AA000008280CD01BE026701E20EBE731480660BA
:10AA10002975FFF73DFB00281FD0AE800FE02E48C0
:10AA20008068808D80060AD52C480278002A06D1DD
:10AA3000AA7B032A05D0022A03D0002A01D02120B4
:10AA4000F8BD022202702975140321463878FFF7F9
:10AA500025FB21463878FFF727FB0120A8802048F6
:10AA6000007800282AD01F48012102887D20C000DC
:10AA70004243C9033878FFF71DFB1FE0FFF7C6FA12
:10AA8000AE802078072808D0082806D026701648FF
:10AA9000FFF716FB1E20FFF7F5FA10480178002992
:10AAA00005D00670012149033878FFF7F7FAFFF760
:10AAB000B9FA0121C9033878FFF7F0FA0020F8BD90
:10AAC000A60BFF1F6B09FF1F1A09FF1F1C09FF1FA1
:10AAD0001B09FF1F4809FF1F5C5FFF1F2309FF1FA2
:10AAE0002109FF1F2C09FF1F00100040F0B585B0A1
:10AAF000044616489C46154600780B9F0C9E0A9B00
:10AB00000D9A04902046202C00D22020202900D22B
:10AB10002021009303920197029663462A46FFF78D
:10AB2000D5FA0B49094A4C8004991170012D01D0C6
:10AB3000042D08D1074980240978CA0106498B8869
:10AB4000A3431A438A8005B0F0BD00001C09FF1F13
:10AB5000A60BFF1F7809FF1F6C11FF1F10B5FB2903
:10AB600008D8084B9A4205D81B2903D3FF23493341
:10AB70009A4201D2302010BD034B19825A82FFF74E
:10AB8000ABFA10BD480800008410FF1FF8B5324929
:10AB9000097801292AD0022928D0032926D004299E
:10ABA00024D0052922D0062920D02C490978022951
:10ABB0001CD004291AD0012918D0032916D006293F
:10ABC00014D0072912D00178254C8C462170467884
:10ABD00066708378A370C278E27001792171407940
:10ABE000204D6071AF79012F02D008E00C20F8BD34
:10ABF0006746EF712E726B72AA72E9722873062291
:10AC0000E91D1948FFF76EFA0622E91D1748FFF7FC
:10AC100069FA1748017801290BD1217841706178D0
:10AC20008170A178C170E1780171217941716179F8
:10AC300081711048017801290BD121784170617828
:10AC40008170A178C170E1780171217941716179D8
:10AC500081710020F8BD00001C09FF1F2309FF1FA0
:10AC60006B09FF1FA60BFF1F7211FF1F8A13FF1F27
:10AC7000BC0BFF1FD40BFF1F70B50446FF30FF3025
:10AC80000230406F0D46012812D1282D10D1A4208A
:10AC9000005BE188401A0B4980B2884208D3214604
:10ACA0006A3105220E46481FFFF722FA002804D019
:10ACB00029462046FFF722FA70BD31462046FFF7AD
:10ACC00023FA70BDFF7F0000F0B5054687B0E03085
:10ACD00004902846A0300390403805900920800158
:10ACE0002E462818FF36E136029030462030EF1D00
:10ACF000F9372C468034019098E1E07A801E0300F9
:10AD0000FFF7BAF91A0E3822396BF638C13892D1EA
:10AD1000A9383838383838F5F4F3F23838F1F038E3
:10AD2000A07A012803D02846FFF7F4F912E0C248C0
:10AD30008078002801D0162129E1608A401E000495
:10AD4000000C60826FD06FE1A07A012804D0284601
:10AD5000FFF7E6F9A07267E1B748C0780028ECD0A9
:10AD60002846FFF7E3F92A4629462879C832C03138
:10AD7000FFF7E2F95AE1A07A012813D00498C07DC8
:10AD8000012821D00498007E00287BD02A4629463D
:10AD90002846D732B031E730FFF7D4F904990120C3
:10ADA000C87543E1A448C078002805D00399012064
:10ADB00088710020E0673860B8790128BDD106218C
:10ADC0002846FFF7C5F931E12846FFF7C7F9012802
:10ADD000B9D10020B8710120BCE7A07A012803D0C6
:10ADE0002846FFF7C1F9B5E79348C0780028A4D0FA
:10ADF000E88C68842846FFF799F905990120C87600
:10AE0000207138790128287909D001220021FFF723
:10AE1000B1F9002038713872F871B87106E100217B
:10AE2000FFF7AEF9F5E7B1E0A07A012805D0284692
:10AE3000FFF7ACF9012807D0F6E0F8790128BDD179
:10AE40002846FFF773F9F1E00020F8710399887143
:10AE50000120A072EAE0A07A012804D0797928467E
:10AE6000FFF79AF976E77448C178002906D0039A6B
:10AE700000219171059A0121D176217180780028F5
:10AE8000DED15AE787E0A07A012803D02846FFF7F1
:10AE900089F95FE76848C0780028F2D0012038734C
:10AEA000E88C6884CCE7A07A012805D00120F875E9
:10AEB0002846FFF77DF94DE7787D012806D0608AA6
:10AEC000401E0004000C608213D0ADE0B87D012864
:10AED000B6D1B88B00907B8B3A7E29790020FFF7A2
:10AEE0006DF9ADE788E06BE03DE02DE01BE009E0A7
:10AEF00095E0B88B00907B8B3A7E29792220FFF772
:10AF00005DF943E0A07A012806D02846FFF75CF9F6
:10AF1000A0720020707487E04748C0780028B0D045
:10AF2000012070748CE7A07A012803D02846FFF72F
:10AF300051F90FE74048C0780028A2D000203074B3
:10AF40002879FFF74DF97BE7A07A012803D028463E
:10AF5000FFF74CF92FE03848C078002891D00199CC
:10AF6000012008726CE7A07A012807D0707FB17FBA
:10AF7000084012D0410714D5042017E02E48C078AD
:10AF800000288AD001990020C871E8E722212846CC
:10AF9000FFF732F9012007B0F0BD707E7075B07E0A
:10AFA00005E0800701D5022000E001207075B07532
:10AFB0002846FFF727F9A07201990020087233E0B4
:10AFC000A07A012807D02846FFF722F9A07202993B
:10AFD0000120087628E01848C0780028A2D1608AAD
:10AFE000401E0004000C60821ED11448042200217F
:10AFF0002818FFF713F9C9E7A07A012803D02846DB
:10B00000FFF712F9A6E60C48C07800280ED0029986
:10B01000002008760299C875FFF70CF910E728465A
:10B02000FFF70EF901288ED00020B4E7E07B00285E
:10B0300000D062E6AFE70000E010FF1F56020000FC
:10B040000D480C4901600D4981600B490C4A4031A3
:10B050004A610D4B0B4A5A610C4AC2620C4A826328
:10B060000C4A8A600C49416307490C484039086220
:10B0700070470000EDAA00114000FF1F11A9001148
:10B08000CD42FF1FD541FF1F4002FF1F2539FF1F83
:10B090002D38FF1F79AC0011C9AC00118D3AFF1F8C
:10B0A000F8B57E4D7C4900200446A9608200401C12
:10B0B0008C50FF28FADDA868794988221150794917
:10B0C000C16279490978002902D076491131C162FB
:10B0D0000A2101657549097881637549C161FFF7E6
:10B0E000B5F8A9687348486119208001886108464D
:10B0F00037228030C260082336220B64CA632822BC
:10B100004A6436224260322202603B220364C263F8
:10B11000282242644122C264392282643222436579
:10B12000026528228265022202664222C2651E2230
:10B13000836642662822C266202242674222026754
:10B140005A22436102613C228261AF22D2000A602E
:10B15000594A0A63FF222D32FF258A60F5350D61B9
:10B16000CA60564A8A646A00554EC267CE644A6213
:10B17000544A8A627322CA6506224A658A65CA1DD4
:10B18000F932022713604F664B27FF008F660927AD
:10B19000CF664D4F0F678C674B67BB10CB674B4F2C
:10B1A000FF313E60454E86626E00866764264662C9
:10B1B0000526C66202260663C826466384633820D5
:10B1C00050604348106443489061B000D06158100B
:10B1D0001062A8005062D4661E2014679066980022
:10B1E0009065136653645367D0653B4890673B484E
:10B1F00081315B00D0670E1D0B6029C64B20C0005B
:10B200000D611063FF20913048656800C8653548BE
:10B210003349214A81603449803A11613149334AC6
:10B2200080318A62324ACA62324A8261324AC262DA
:10B23000324A02632B4A3248403A50633148D06365
:10B240003148C861314827499063314840318861AD
:10B25000314930488860234830498038416030495E
:10B26000416320492F4AC039CA60304A2E4B1D4CD9
:10B27000D3632F4B403C23632E4B8B622E49C1631B
:10B280002E49C1602E4850632E48E060FEF7E4FF6F
:10B290000120FEF7E7FFF8BD0004FF1F5C5FFF1F02
:10B2A00050FFFF1F6E040000F85CFF1F4A0AFF1FDB
:10B2B0003A07000080C3C9019A02000050C3000091
:10B2C000280A00006A180000204E0000F009FF1F45
:10B2D0000040001168100000DC05000040420F0033
:10B2E000A53DFF1F0001FF1F7D22FF1F6B50FF1FA9
:10B2F0004153FF1F6122FF1F4DA60011D5A400116D
:10B300008D2DFF1FC12CFF1F6959FF1F6157FF1FA4
:10B310003122FF1F5DAB00110002FF1F5D38FF1FD0
:10B32000693BFF1F5124FF1FB9A400110000FF1F3C
:10B330008543FF1F9939FF1FF13FFF1FF139FF1FA1
:10B340003924FF1F7138FF1F0A7802708A78427013
:10B350004A88120A82700979C170042070470A78FD
:10B3600002700988090A41700220704710B5002256
:10B370000EE093005B189C7804705C88521C240AD1
:10B3800044701C7984709B88D2B21B0AC370001D64
:10B390000B789342EDD81806800D10BDF8B50D4618
:10B3A00006464978012031700024761C16E0697841
:10B3B000012917D01221614349198A7832704A88CD
:10B3C000871C120A7270B61C10223046091DFEF747
:10B3D00089FE1037B8B21036641CE4B22978A14255
:10B3E000E5D8F8BDA10049198A7832704A88871CCF
:10B3F000120A7270B61C02223046091DFEF772FE58
:10B40000BF1CB8B2B61CE7E710B50C46097801704E
:10B410002188090A41706288211D801CFEF762FEA6
:10B420006088801C80B210BD10B50C460978017090
:10B430002188090A4170A17881706188090AC17068
:10B44000A288A11D001DFEF74DFEA088001D80B240
:10B4500010BD10B50C460A88891CFEF743FE2088F3
:10B4600010BD10B50B788A7802705343DCB22246C7
:10B47000401C091DFEF736FE601C10BD10B50B7890
:10B480008A7802705343DCB22246401C091DFEF745
:10B4900029FE601C10BD10B50C460A88891CFEF7F9
:10B4A00021FE208810BD10B50C460A88891CFEF7C5
:10B4B00019FE208810BD7FB515460446022901D02B
:10B4C000102903D1022B04D0102B02D0002004B08D
:10B4D00070BD994202D10A46294607E01029694603
:10B4E00007D000F00DF8102269462846FEF700FE4E
:10B4F000EDE7104600F004F8102269462046F5E713
:10B5000070B50C4605000CD0002C0AD0102206495C
:10B510002046FEF7E7FD28782073687860730120E5
:10B5200070BD002070BD0000B00D011110B50B46BC
:10B530000122024901F01CFD10BD000049B30011B9
:10B5400070B5064608880C46172812D30B4603220E
:10B550000949304601F00CFD050008D10749208853
:10B560000988884200D20146304600F0D1F92846C9
:10B5700070BD022070BD00005FB30011B45FFF1FFB
:10B5800010B500231922194601F0F2FC10BD00008D
:10B5900010B50A78002A05D00B460722024901F0AF
:10B5A000E7FC10BD022010BD6DB3001110B54A7844
:10B5B000012A01D0022A08D10A78002A05D00B46B8
:10B5C0000522034901F0D4FC10BD022010BD00008B
:10B5D0009DB30011024940008968085A7047000075
:10B5E000A85FFF1F10B50B461B22024901F0C0FCEB
:10B5F00010BD000009B4001110B50649002089688B
:10B600001723054A02E044000B53401C1478A04263
:10B61000F9DB10BDA85FFF1F7C60FF1F002801D071
:10B62000102801D90220704701488160002070472E
:10B63000A85FFF1F0098022B01D0042070471178EB
:10B640005278120289180180002070470098012B5F
:10B6500001D004207047117801700020704770B548
:10B66000049C1E461546062B1BD3697828780902D0
:10B6700040182080E978A8780902401860800222EA
:10B680002271291D601DFEF72DFDB61FB2B2228169
:10B69000F02A06D82046A91D0A30FEF723FD002017
:10B6A00070BD042070BD0098042B01D004207047A9
:10B6B000537811781B02C91801809178D278120250
:10B6C0008918418000207047F8B584890D460646E8
:10B6D000002C26D0B2681778380620D50C2C20D93B
:10B6E0000C3CA4B21019009001217088234601F08F
:10B6F000D7FB002811D0022028707806C00F687090
:10B70000B806800EA870641E2004000CA88001D02A
:10B71000B068401CA8600020F8BD0120ECE70020C4
:10B72000EAE70120F8BD10B502981146042B14D3A6
:10B730004C780A78240212190280CC788A78240284
:10B74000121942801B1F9AB28280F22A05D8801DEE
:10B75000091DFEF7C7FC002010BD042010BD009895
:10B76000042B01D004207047537811781B02C918AC
:10B7700001809178D27812028918418000207047A8
:10B7800010B502981146062B03D0142B03D00420C9
:10B7900010BD022200E0102202714B780A781B02D1
:10B7A000D2180280CB788A781B02D21842800279A4
:10B7B000401D091DFEF796FC002010BD30B5039C0E
:10B7C000D80718D1D805010E022914D30B48808858
:10B7D000814210D8F6200155002008E055781378F2
:10B7E0002D025B194500401C6353C0B2921C884275
:10B7F000F4D3002030BD042030BD0000A85FFF1F3F
:10B800000098022B01D00420704711785278120260
:10B81000891801800020704770B5144602460498CC
:10B82000022B18D3667825783602AD1905800546B7
:10B83000E0352A766976002A0BD0E8219B1E9AB261
:10B8400042808A4207D8A11C001DFEF74BFC002055
:10B8500070BDF421F2E7042070BD000010B50B4666
:10B860001722024901F084FB10BD000029B4001129
:10B8700010B50B460D22024901F07AFB10BD000005
:10B8800053B4001110B50A78002A05D00B461122D6
:10B89000024901F06DFB10BD022010BD63B4001120
:10B8A00010B50A78002A05D00B460922024901F09A
:10B8B0005FFB10BD022010BD7DB4001110B50B461A
:10B8C0000F22024901F054FB10BD000097B4001193
:10B8D00010B50B460B22024901F04AFB10BD0000D7
:10B8E000A7B40011F72800D9F720084A01461080B4
:10B8F000401EC3179B0F18188003000C5080491E70
:10B90000C80F4018C003000C90807047A85FFF1F4D
:10B91000034A1388994202D8926840001152704736
:10B92000A85FFF1F10B500231322194601F020FB6A
:10B9300010BD000070B50C460146032000020A1A33
:10B94000002534481300FEF797FB1D1012151C1F2D
:10B950002326282C303234383A3C3E404244464874
:10B960004A4E50525A5456585A00C07911E010228B
:10B97000294902E02849102210312046FEF7B2FB87
:10B9800045E0C06A206042E0224906223C31F4E7EB
:10B99000007820703BE0808936E01E4942784231D1
:10B9A000EBE71D4982781F39E7E7007AF1E7407A33
:10B9B000EFE7184906223031DFE7807AE9E7C07AFD
:10B9C000E7E7C08920E0808A1EE0C0781CE0C08ADA
:10B9D0001AE0008B18E0408B16E0808B14E00D49D4
:10B9E00006223631C9E7C08B0EE0008C0CE0408C9B
:10B9F0000AE08079CDE7008A06E0408A04E0272942
:10BA000004D2084600F052FA208000E002252846C1
:10BA100070BD0000F45DFF1F8993FF1F70B50E4CD1
:10BA200000256071A571691EE18100F06BFB0420A7
:10BA3000E071102200210948FEF7F0FB07481022B0
:10BA400000211030FEF7EAFBE562257265720720DF
:10BA5000A072E57270BD0000F45DFF1F8993FF1FA7
:10BA6000FEB53B4D0C4608040CD56879FEF700FC8A
:10BA7000050004D002F020F82846FEF7FFFB012065
:10BA8000C00360E0600403D5012080034840FEBD90
:10BA90002F48E1070126807900292AD0297800293A
:10BAA00020D0052821D0297A68460170697A417032
:10BAB000274906223031801CFEF714FBA97A68461C
:10BAC0000172E97A41726946687900F007FA002844
:10BAD00008D00720A871696A002903D009680029E5
:10BAE00000D0884720467040FEBD0320694608709C
:10BAF000E4E7A1070DD5052809D1E889FEF7C4FBC5
:10BB0000AA8A002A03D002216879FEF7D3FA02201C
:10BB100019E0600704D5002002F00EF8042012E0BE
:10BB2000200712D52879012802D002280AD107E07F
:10BB30000096AB8B6A8B298BE88A00F00BF801E04A
:10BB400000F05AF908206040FEBD0020FEBD000054
:10BB5000F45DFF1FF8B5134C069EA579052D01D0A5
:10BB60001420F8BD104F851FBD4219D2062917D3E6
:10BB7000BD1DA94214D2FF27F537BA4210D20A2BB5
:10BB80000ED3AB420CD2E08221836283A383304682
:10BB900001F0D2FF04216079FEF780FA0020F8BDA1
:10BBA0001820F8BDF45DFF1F7A0C0000F7B50D46B4
:10BBB00080490098164642187F4F00247879B97959
:10BBC0001300FEF759FA190E141BE920404559706D
:10BBD000777E888FE996A2A9B4BFC8E9E9E9E9D3DD
:10BBE000E900102D76D11022314674486FE0102DF7
:10BBF00070D1724810223146103068E0042D69D1AE
:10BC00003068F862CEE0012D64D13B7832783A702A
:10BC1000002B0AD0002A07D1022903D0062901D01F
:10BC2000042901D100F018F9BCE0002A0AD001294A
:10BC300005D0032903D0052901D0042902D101210F
:10BC4000FEF732FAAEE0022D44D13088B881A9E087
:10BC50001F2D3FD858481F2200214230FEF7DEFA40
:10BC600055482A4631464230FEF73CFA524B7D7029
:10BC700042332A46012112E01F2D7CD84F481F2253
:10BC800000211F38FEF7CAFA4C482A4631461F38B1
:10BC9000FEF728FA494B2A461F3BBD7000217879F0
:10BCA00000F0A6FA83E0012D65D13078042862D82F
:10BCB000387277E0012D5ED1307803285BD8787236
:10BCC00070E0062D57D13C48062231463030FEF751
:10BCD00009FA67E04FE0012D4DD1307807284AD8A6
:10BCE000B8725FE0012D46D13078032843D8F8724E
:10BCF00058E0022D3FD13288BA82002A52D005295D
:10BD000050D10221FEF7D6F94CE0012D33D1307825
:10BD1000012830D8F87045E03088022D2BD1062854
:10BD200029D31921C901884225D8F8823AE0308800
:10BD3000022D20D106281ED31921C90188421AD804
:10BD400038832FE03088022D15D1FF21F53188424C
:10BD500011D2788326E03088022D0CD10A280AD32C
:10BD60001921C901884206D8B8831BE03178012D1A
:10BD700001D1012901D0182414E00821FEF78AFA24
:10BD8000002801D016240DE0002001F0D5FE04218A
:10BD90007879FEF783F905E00098272801D2022D73
:10BDA00002D002242046FEBD318800F0D1F90446BD
:10BDB000F8E70000FFFCFFFFF45DFF1F8993FF1F02
:10BDC0001CB50B4CA179002901D011201CBD002805
:10BDD00000D06062064907482C310346019100906B
:10BDE000103B0022E179607900F016F800201CBDBC
:10BDF000F45DFF1F9993FF1F10B50648817905294F
:10BE000001D0122010BDC1891322407900F0B0F991
:10BE100010BD0000F45DFF1FF8B51D460224069F0B
:10BE2000079E0B00FEF728F90D15081515081515C6
:10BE3000151515151508150000F0B4F8040008D103
:10BE400032463946284600F063F900F0C7F801F0A1
:10BE500017F82046F8BD000070B5104C2168002985
:10BE600004D00978814203D0032070BD122070BD38
:10BE70000B4D02212878FEF711F90A48002646806A
:10BE800004212878FEF70AF9074806802168032074
:10BE900048700020FEF704FA70BD0000AC60FF1F80
:10BEA0004160FF1F2460FF1FBC5FFF1F272803D2D4
:10BEB00002494000085A704701487047C45FFF1F9D
:10BEC000FFFF000010B5044C6070FEF7EFF905218C
:10BED000607800F0D5FE10BD4060FF1F70B5284EA1
:10BEE000054630680C46002801D0112070BD254859
:10BEF00001780520014216D023488068002805D02B
:10BF00000078002802D0C80706D101E0102070BDDB
:10BF100000F044F8002808D02078032805D0022833
:10BF200003D0002801D0122070BD0C20FEF7C4F908
:10BF30003060002820D00570002141700A2221467F
:10BF4000801CFEF7CFF801F0B9FE040002D001F02A
:10BF5000D1F812E00D48007803280ED11D20FFF71C
:10BF6000A5FF0B490028088007D00B48094A042187
:10BF70000078FEF7A7F900E01324204670BD00000A
:10BF8000AC60FF1FB95FFF1F2460FF1FBA5FFF1F78
:10BF9000BC5FFF1F60EA00004160FF1F10B503F0A7
:10BFA0002FFD10BD70B50C4605461C220021094826
:10BFB000FEF734F9084805704470FEF789F9054921
:10BFC000002803D000200870122070BD01220A70E2
:10BFD00070BD00000C9AFF1FB85FFF1F70B50F4CBB
:10BFE0000025A068002802D0FEF778F9A560E06877
:10BFF000002802D0FEF772F9E560094805210078B3
:10C00000084206D00548103001F052FC01F014F847
:10C0100070BD002001F04CFC002070BD2460FF1FAB
:10C02000B95FFF1FFEB5344D0C46080419D568787A
:10C03000FEF71EF90121C9034C40064600280ED028
:10C0400001F056FB002807D12878FF2804D031469C
:10C05000FEF74AF9002802D03046FEF70FF92046D5
:10C06000FEBDE007012700280AD0A868002804D0F8
:10C070004168002901D00020884720467840FEBD55
:10C08000A00709D56868002804D04168002901D0BC
:10C090000120884702202AE060072AD5174E308801
:10C0A00000281FD0401E0004000C30801ED101F07B
:10C0B00097F8002809D0124807706868002804D053
:10C0C0004168002901D00120884701F063F86946E2
:10C0D00000F066FE684601F0F5FA1D20FFF7E6FE67
:10C0E000308003E004216878FDF7D8FF0420604029
:10C0F000FEBD0020FEBD00004060FF1FBC5FFF1FB3
:10C10000BB5FFF1F01490870704700004060FF1FC0
:10C1100070B50E4C0B46261D07C6054610220021A1
:10C120001846FEF7E7F8012803D11021A06803F0B4
:10C130004BFE102200212846FEF7DCF8012803D12F
:10C140001021606803F040FE70BD00000C9AFF1FD4
:10C15000272807D2044A914204D0044A40001152D1
:10C160000020704702207047FFFF0000C45FFF1FE0
:10C17000F8B50D4617461D4906461B4A1224886825
:10C18000954208D100282DD00268002A2AD02946DD
:10C190003046904723E0144A521C954213D10028A0
:10C1A00007D00268002A04D0294630469047040090
:10C1B00005D03946304600F019FF040012D10B4873
:10C1C000067047700EE0284603F0AAFB002809D04D
:10C1D0000078B04205D139462846FEF791F804466A
:10C1E00000E003242046F8BDFEFF00001460FF1F9E
:10C1F000F8B50E46014619481546007805221F4637
:10C20000104028D0304326D01548012E1BD0C468DA
:10C21000002C20D01F2D18D8002D01D0002F14D0B5
:10C2200001701F220021601CFDF7F8FF2A463946E5
:10C23000601CFDF757FF28462570002E07D0611CB3
:10C24000FEF764F8F8BD8468E2E70220F8BD611CDF
:10C25000FEF762F8F8BD1220F8BD0000B95FFF1FBD
:10C260002460FF1F014610B50020C90704D0034A0F
:10C270000421034800F0A6F910BD0000900D011143
:10C280002C5DFF1F70B50F4D0F4CA870294618315B
:10C29000204600F01DF8002128460B461030CA0049
:10C2A00084521218491C09065360090EF7D0012068
:10C2B00002F01CFCA87800F025FB044803F0B6FB54
:10C2C00070BD00000C5DFF1FFFFF0000F5E20011D4
:10C2D00070B50A4C0025A04209D1002082008C5282
:10C2E0005218401CC0B295700228F7D370BD01F0FF
:10C2F000D0FF0028FAD00480857070BDFFFF0000D9
:10C30000F8B50E460746069900240798002902D082
:10C310000B242046F8BD022B01D00D24F9E711783B
:10C320005278120289188DB22946814301D08024A7
:10C33000EFE73846F16800F03DF9A842E9D02A4617
:10C340003846F16800F0A8F90400E2D171892A4664
:10C35000384600F065F9DCE770B50C46080412D5E4
:10C360000A488078FDF784FF050008D02878B028B7
:10C3700002D1284602F0AAF82846FDF77FFF0120E7
:10C38000C003604070BD002070BD00000C5DFF1F49
:10C39000FFB587B0087A0025109E1C460F46C006E0
:10C3A0000DD5099801F06EFF030006D00A22394628
:10C3B00007989847050035D101E00E2532E038781E
:10C3C00002281DD1786829220178407812020002E3
:10C3D000081880B2811A90427ED009DC7249401A56
:10C3E00023D0012821D0022851D0032808D125E0EC
:10C3F000012972D0022971D003296DD004296ED091
:10C40000099801F067FF0028D7D00568002DD4D027
:10C4100012991198019100903346224639460798A7
:10C42000A847054628460BB0F0BD1198002873D1E7
:10C43000F868017831800278416897E01198002807
:10C440006AD101203080F868002100782070788956
:10C45000401C80B200F04EF900280FD031880278DD
:10C460008918891C3180817A61704189090AA1701B
:10C4700002784168E01CFDF735FED3E730880422DE
:10C48000001D30800021601CFDF7C8FECAE711982E
:10C49000002872D1F86804A9008800900420308038
:10C4A000009820700098000A6070009800F022F94F
:10C4B000070028D0F86805906846028A03AB3B491C
:10C4C000384600F06FF900280FD13B780221384838
:10C4D0007A68FEF7F0FF03E027E031E01DE049E075
:10C4E000002802D1314869468881059800780228E1
:10C4F0000CD1059802224168201DFDF7F3FD30881C
:10C50000801C308002E069460098888168468089F6
:10C51000A070000AE07085E72FE0119800282CD168
:10C52000F968079800F046F804E01198002824D133
:10C53000F8680088022131802070000A607071E77D
:10C54000F868FDF7EFFE1199C0B2814210D8814220
:10C5500001D1002206E0129A8918814202D3119972
:10C56000401AC2B23280F96811980918204682E751
:10C57000072557E71198002801D00B2552E707211E
:10C58000F868318001782170417861708178A170FC
:10C590004188090AE1700179217181796171C0884E
:10C5A000000AA0713EE7000000280000FFFF000025
:10C5B000260E011110B501F06CFE002800D0807825
:10C5C00010BD00007CB51446050019D068460195E1
:10C5D000018000F09DF903001DD1002C1BD06D8956
:10C5E000002D0DD00C20FDF767FE00280AD0002397
:10C5F00003608580094A84609168002904D006E0C0
:10C60000022308E0132306E0906004E011460A6864
:10C61000002AFBD1086018467CBD00000C5DFF1F9E
:10C62000F8B50C4C0746207815460E46FF280FD06B
:10C630000A20FDF77DFE01000AD0B120087000201D
:10C64000487008714F80CE800D812078FDF74CFE38
:10C65000F8BD00000C5DFF1FFFB583B008461F4604
:10C6600001A90C9E00F046F8050012D068468088AB
:10C6700001F030FE00280AD04468002C07D0009654
:10C680003B462946059A0398A04707B0F0BD0E2007
:10C69000FBE70120F9E7000070B514460E46054699
:10C6A00001F0F7FD002806D13146054801F0F1FD03
:10C6B000002803D005808470002070BD112070BD5B
:10C6C000FFFF000010B50178B0290BD14178002997
:10C6D00008D10179122906D01B2903D140880121F4
:10C6E00000F04AFA10BDFF210231095C0129F5D0A2
:10C6F00010BD0000F0B58C4610494B6819E09F68EA
:10C700007C89A04214D39E883119814210D900221D
:10C710000CE011017D186989814205D1604600282D
:10C7200000D004802846F0BD521C92B29642F0D848
:10C730001B68002BE3D10020F0BD00005460FF1FF8
:10C74000FFB5174881B00A9F446824E000251EE029
:10C75000A0682901461870890199884215D3029969
:10C76000884212D80498002807D031787068049B5A
:10C77000039AFEF7A0FE002807D0002F02D0A06881
:10C7800040893880304605B0F0BD6D1CADB2A08840
:10C79000A842DDD82468002CD8D10020F3E700009F
:10C7A0005460FF1FFEB5174600256A469580044673
:10C7B00040891D4A1E46904208D001AA0092401CA2
:10C7C000237880B26268FFF7BBFF05462378022119
:10C7D00016486268FEF76FFE002807D12378022111
:10C7E00013486268FEF767FE002801D060890EE0FA
:10C7F000237802210F486268FEF75DFE00280DD005
:10C80000002D03D068468088B84203D0384602F035
:10C8100077FA04E06889401E80B200E06089002E4B
:10C8200000D030802846FEBDFFFF0000240E01111D
:10C83000260E01112A0E011110B5054908700421B8
:10C8400000F01EFA00F006F8FEF7D6FE10BD00005C
:10C850006060FF1FF8B50F4D0D4B00206E1C1C785B
:10C86000FF2209E09F688100C91900280ED00E80C0
:10C87000CA70401C8A70C0B2A042F3D3064801F0CF
:10C88000F3FC064803F0D2F80020F8BD0D80EFE776
:10C890005460FF1FFEFF000019EC001199EB00111E
:10C8A000F8B50D4614460646694601F039FB1728CF
:10C8B0000CD0002C06D001221021304603F00AF8DB
:10C8C000002803D129463046FEF78CFEF8BD000053
:10C8D00070B50C46080411D509480078FDF7C8FC6E
:10C8E000050007D00178A02901D101F061FC28469C
:10C8F000FDF7C4FC0120C003604070BD002070BD86
:10C900006060FF1F01494870704700005460FF1FBE
:10C9100070B50546008800281DD06868022103789C
:10C9200042682248FEF7C7FD002808D16868022146
:10C93000037842681E48FEF7BEFD00280BD01D4C50
:10C940006088002805D0012229881204101A81422B
:10C9500003D9012070BD022070BD0C20FDF7ACFC96
:10C96000060001D000200BE0132070BD01016B68B0
:10C9700062880A315A526188491C401C618080B229
:10C9800029888142F2D80020306008222946301DD3
:10C99000FDF7A8FB6068002802D1666004E0084645
:10C9A00001680029FBD10660002070BD240E011132
:10C9B000260E01115460FF1F0649496806E08A6887
:10C9C0005289824201D18888704709680029F6D1CE
:10C9D000002070475460FF1F10B50C460321FDF77F
:10C9E000ADFC214600F0B0F910BD10B51422114283
:10C9F00001D0012202E04A0604D50022102102F0F3
:10CA000069FF10BDC80701D0002010BD022010BD75
:10CA100010B514468A0604D50122102102F05AFFEF
:10CA200010BD882211420ED008220A40102102F0C7
:10CA300051FF00280BD0E034617E0029F0D0217E28
:10CA40000129EDD103E0880701D4032010BD0020A7
:10CA500010BD0000014610B50020C90704D0034AEC
:10CA600007210348FFF7AEFD10BD0000A40D011122
:10CA7000805DFF1F70B50D46164600241D4903005A
:10CA8000FDF7FAFA08051234341934222934152D29
:10CA900023D8162200211848FDF7C0FB2A4631464C
:10CAA0001548FDF71FFB22E0022D16D11149108811
:10CAB000103908801BE0082D0FD10E48082231469E
:10CAC0000838FDF741FC12E0012D06D1CA69094979
:10CAD0003078283107E0012D01D0182407E0CA6B17
:10CAE00004493078483102F0D2F900E002242046AF
:10CAF00070BD0000805DFF1F5493FF1F0B78037013
:10CB00000B8802221B0A43700B88801C012B02D069
:10CB1000022B07D011E08A7802704988090A417017
:10CB200004220AE08A7802704A88120A42700A795E
:10CB300082708988090AC170062210467047000079
:10CB400008B5044B009313460A46012102F000FE8B
:10CB500008BD0000FDCA00111CB50323019200931B
:10CB60000A46024B122102F023FE1CBD31F00011D7
:10CB700010B5FDF7EFFB10BD13B504480078012890
:10CB800003D101AA6946FDF7EBFB1CBD6C60FF1FDA
:10CB900070B51049104A087000210B468C00491CE2
:10CBA000C9B213530429F9D30B4C00211034FF26CA
:10CBB0000A460A256A4315196B80491CA354C9B259
:10CBC0006E720329F4D3FDF7D1FB02F077FD02F07A
:10CBD000DDFE70BD6D60FF1F289AFF1F082A01D07F
:10CBE000012070474B780A781B02D2180280CB785C
:10CBF0008A781B02D21842804B790A791B02D2181C
:10CC000082808A79C97909025118C1800020704751
:10CC100070B50C46080411D509480078FDF728FBCB
:10CC2000050007D00178902901D102F0A9FC28461F
:10CC3000FDF724FB0120C003604070BD002070BDE3
:10CC40006D60FF1F70B50C490978884213D20B4CF8
:10CC500006016068002585533018858160683018AA
:10CC60008580606830188068002804D0FDF784FB58
:10CC700060683018856070BD7C60FF1F7060FF1FAA
:10CC8000072907D0052905D0042903D0062901D09A
:10CC900002207047044A8B009A181346403B1986BD
:10CCA000203A907400207047289AFF1F70B51749EA
:10CCB0000978884228D25C21154C4843A168054672
:10CCC0004018002640300674A0682818403046748A
:10CCD000A068281840300676A0682818406D002803
:10CCE00004D0FDF749FBA068281846650026A06817
:10CCF000F100281840184068002801D0FDF73CFBDF
:10CD0000761CF6B20A2EF2D370BD00007C60FF1FC5
:10CD10007060FF1F70B50A880C460546072A07D0C9
:10CD2000052A05D0042A03D0062A01D0022070BDAE
:10CD3000012102F0ADFE002804D02146284602F071
:10CD40008DF970BD142070BD1CB504460D48012935
:10CD5000017003D00020FDF715FB1CBD69460020C3
:10CD6000FDF7BAFD684681882046FDF7E7FA0446DC
:10CD70000120FDF707FB0023224619461846FDF760
:10CD800007FB1CBD6C60FF1F10B5001D80B2FDF7D6
:10CD900005FB002803D00321C943FDF705FB10BDA7
:10CDA00038B50C46050014D0002C12D0032168467B
:10CDB00003F00AF86946887840218006800E08430F
:10CDC000694688702246284603F014FC050002D00C
:10CDD00006E0022038BD03226946E01CFDF782F917
:10CDE000284638BDF7B58EB00E9815460E46002879
:10CDF0002DD0002D2BD0301DC0B20190FDF75CFA74
:10CE0000040039D000F0D2F907463246201D0E99B1
:10CE1000FDF7D0FAF8B20890E0703804000E0B90DD
:10CE2000A0703802000E0A9060703F0E277000F06C
:10CE3000B7F90146102202A8FDF7BCFA06AB21465D
:10CE400002A8019A03F02CFB060003D010E0022098
:10CE500011B0F0BD089828700B9868700A98A870F7
:10CE6000EF70082206A9281DFDF7A4FA00F0A4F926
:10CE70002046FDF733FA00E013263046E8E70000CD
:10CE800010B505480078400701D5044800E00020AF
:10CE900003F044F8002010BDB95FFF1F9460FF1F2E
:10CEA000FFB58DB00F98169C0E46002815D0002CAB
:10CEB00013D00D9802F034FD050011D06178207870
:10CEC00009024018A178E278090412068918471867
:10CED000286AB84206D3401C04D0022011B0F0BD2D
:10CEE0001420FBE7002E04D02879800701D401200C
:10CEF000F4E70822002106A8FDF790F91098001D1C
:10CF0000C0B20190FDF7D8F9060017D0301D109A75
:10CF10000F99FDF74FFA042221463046FDF74AFAF1
:10CF20001022A91802A8FDF745FA06AB314602A85F
:10CF3000019A03F0B5FA050002D013E01320CDE703
:10CF4000082206A908A8FDF735FA0822211D08A81D
:10CF5000FDF7CEF8012801D0012503E039460D98F0
:10CF600000F006FF3046FDF7B9F92846B6E70000A5
:10CF7000FFB50F4683B01C490398896840001646E8
:10CF8000085AFFF701FF04002AD00125601C267013
:10CF9000002F03D00699B847401C85B2300610D543
:10CFA0001021039802F074FD002801D0192613E027
:10CFB0006219E9B22046FFF715FF06000CD10C35C7
:10CFC000ADB2042168460180019405816946039849
:10CFD000FFF7A0FE060004D02046FDF7CDF900E0E3
:10CFE0001326304607B0F0BDA85FFF1F10B50C46F2
:10CFF00002F0AEFC002804D040882146FDF780F9FD
:10D0000010BD122010BD0022002913D0002811D01D
:10D01000012806D04A799206920E4A71032805D05B
:10D0200007E04879C0221043487102E040200243E3
:10D030004A7101221046704770B5124800250078E9
:10D04000052108421BD02020FDF736F90E4C0028A0
:10D05000A06013D020220021FDF7E0F82020FDF78A
:10D060002BF9E060002804D020220021FDF7D6F83B
:10D0700005E0A068FDF732F90020A06013252846DE
:10D0800070BD0000B95FFF1F2460FF1F002909D099
:10D09000012807D1497989098901C02902D040298D
:10D0A00001D00220704703207047FFB500200E46D4
:10D0B00008701AE01C5C401CC5B2002C17D028195F
:10D0C000904214D85F5D6D1CEDB2384600F079FED9
:10D0D000002806D0641EE0B2307000998F4202D161
:10D0E000581904B0F0BD4019C0B29042E2D30020FC
:10D0F000F7E7000010B5044C2068002803D0FDF7C6
:10D10000EDF80020206010BDAC60FF1F70B5104D21
:10D110008400E8680059002819D0006A002801D06E
:10D12000FDF7DCF8E8680059406A002801D0FDF7F7
:10D13000D5F8E8680059806A002801D0FDF7CEF8DC
:10D14000E8680059FDF7CAF8E9680020085170BD89
:10D150001460FF1F10B5044C6068002803D0FDF771
:10D16000BDF80020606010BD1460FF1F011E044860
:10D1700005D104498978002901D00248801D7047F3
:10D180001C9AFF1FB85FFF1F01488078704700009E
:10D19000B85FFF1F01484068704700000C9AFF1FEE
:10D1A00001488068704700000C9AFF1F0148C06862
:10D1B000006870470C9AFF1F10B50748C0680168E7
:10D1C000491C016005480078FF2803D0012189032C
:10D1D000FCF76AFF10BD00000C9AFF1FB85FFF1F2D
:10D1E00002484068002800D001207047A860FF1F57
:10D1F000FFB581B00F460D9E0A9D039802F090FB8B
:10D20000040042D0019800283FD120791021084322
:10D2100020710499490702D50221084301E0FD214C
:10D22000084020710B99284608430C990843304365
:10D23000207902D00421084301E0FB21084020713D
:10D24000002E06D03069102220623146A018FCF76B
:10D2500049FF002D01D0002F05D00B98002814D0D5
:10D26000012F08D011E0606A002801D0FDF736F8E0
:10D270001C21284606E0606A002801D0FDF72EF840
:10D280001C210B98FDF79CF860620398274C8700DF
:10D29000E068C059002846D0002D11D0006A00284F
:10D2A00007D11C20FDF708F8E1680028C959086279
:10D2B00006D0E0681C22C0592946006AFCF712FF1C
:10D2C0000C98002813D0E068C059406A002807D1A4
:10D2D0001620FCF7F1FFE1680028C959486206D022
:10D2E000E0681622C0590C99406AFCF7FBFE002E3C
:10D2F00013D0E068C059806A002807D11420FCF7D9
:10D30000DBFFE1680028C959886206D0E068142272
:10D31000C0593146806AFCF7E5FE0B9B049A0399DD
:10D32000019802F0DDFB05B0F0BD00001460FF1FA6
:10D33000F3B581B0019802F0F3FA050029D00E2070
:10D34000FCF7F6FF040024D02620FEF7AFFD060010
:10D3500000D12E78D0202070002767700B20A0709D
:10D360000622E91DE01CFCF7BDFE019860810298D1
:10D37000C1070120002901D0207300E02773029922
:10D38000890701D5607300E06773F0B22146FCF7AE
:10D39000ABFFFEBD10B581881F4B0124CA1A99420C
:10D3A00037D011DC1D4BCA1A994219D007DC1C4A30
:10D3B0008A1810D0022A1ED0032A29D11BE0472A3E
:10D3C00027D0482A24D124E01300FCF755FE06217B
:10D3D0002222222222218068007800F0B3FC08E09B
:10D3E0008068827841781202891889B2007800F04A
:10D3F00009FD04460DE0094A921E914201D1012225
:10D4000000E0002280680178104600F0E3FC00E0B4
:10D410000024204610BD0000532000000A20000018
:10D42000FADFFFFF70B51A4D1A4A01460026287828
:10D430001268194C01290CD0002A09D01749097823
:10D44000490705D50221FCF729FE6680FFF752FE49
:10D4500070BD6188002903D0114B1B78002B05D0CB
:10D46000002AF5D01078FEF7F7FC70BD3C2902D3F6
:10D470003C39618070BD0221FCF710FE62887D207E
:10D48000C000424302212878FCF714FE668070BD7C
:10D490004160FF1FAC60FF1F2460FF1FB95FFF1FCB
:10D4A000BB5FFF1F08B5418900910389C28881884D
:10D4B000C07800F093FB08BDF0B504468088A12138
:10D4C00089004843304987B009684018FF30FF3071
:10D4D0000230A1794167002C54D02C4D6868002897
:10D4E00023D006782A480068002804D04168002923
:10D4F00001D0002088472146E07908310591FFF7E7
:10D50000C5FDE0710246277D638A218AE08901908A
:10D5100002A88AC0A0880090E0783146059B02F0FE
:10D5200057FBE078002802D00DE01A48D9E7E079EF
:10D53000E2896B46059907C3A379A1880122304689
:10D5400002F09CF9E0706868002811D0FFF702FE35
:10D55000287800280CD06978FFF748FD002807D00C
:10D56000E078A2880346297802F05FFB002028704B
:10D57000A0881721FEF7CCF9A088FFF763FBA088ED
:10D58000FFF794FB07B0F0BD3409FF1F1460FF1FC5
:10D590004460FF1FB85FFF1F70B5044600258088F8
:10D5A00002F0BEF9002803D00578A08802F054FAF2
:10D5B000134E3078002808D0854206D17178FFF7E5
:10D5C00015FD002809D000203070002D05D0A3796A
:10D5D000A288A078294602F028FBA088F268810082
:10D5E0005158002901D0FFF791FDA0881721FEF7BF
:10D5F0008FF9A088FFF726FBA088FFF757FB70BDC7
:10D600001460FF1F70B58288294D0124531B2949DE
:10D61000AA4242D019DC284D531BAA4218D00BDC79
:10D62000264BD21826D0254B1033D2181ED0032AF1
:10D6300017D0042A39D10BE0012B09D0022B07D0D7
:10D64000032B21D0042B30D11AE0433B072B2CD8DD
:10D65000496800292AD00968002927D0884704464C
:10D6600024E08068007800F0ADF81FE0806800F0EA
:10D6700001F9F4E78068411C007800F0D9F8EEE782
:10D6800083681B78002B11D0896800290ED00B68A5
:10D6900008E0014610469847E1E709490968002972
:10D6A00004D04B68002BF4D100E00024204670BD6C
:10D6B0000E2000004060FF1F08200000F7EFFFFF72
:10D6C0001C60FF1F10B5094CA17800290CD0014641
:10D6D0000622A01DFCF706FDA11DA078FFF793FC14
:10D6E000A01DFCF7D7FE10BD002010BDB85FFF1FC6
:10D6F0001CB52F49037801240A68912B02D0A22B74
:10D700002ED13EE04178052909D00E2904D00F29F9
:10D7100008D03E2924D115E0FFF774FF10E0FFF791
:10D720003BFF3AE001468088224B0124C31801D018
:10D73000062B15D1002A30D05268002A2DD09047F0
:10D7400004462AE081780124032917D004DC01294A
:10D7500011D0022904D105E015291ED016291CD0AC
:10D7600000241AE014498968002916D04968002964
:10D7700013D0884711E0FFF79FFE0EE0FFF792FEFF
:10D780000BE00E490978042909D0002A05D0526817
:10D79000002A02D001460A48904720461CBD0021BD
:10D7A0006A46118001794088FFF7CAF9F5E7000061
:10D7B0001C60FF1FF3DFFFFF4060FF1FB95FFF1F0B
:10D7C000FFFF0000F8B5164F0646BD1F2878FF285A
:10D7D00014D00A20FCF7ACFD04000FD0D02020703C
:10D7E00066700820A070A878E07006223946201DD7
:10D7F000FCF778FC21462878FCF776FDE8780128CC
:10D800000DD108480068002803D08068002800D0A7
:10D8100080470648044A04210078FCF753FDF8BD10
:10D82000BE5FFF1F4460FF1F60EA00004160FF1FF2
:10D8300070B500240546002805D1002903D0062232
:10D840000B48FCF74FFC0A4810380178012907D132
:10D850000124002D06D000210170284600F09AF91D
:10D86000204670BD02210170FCF7B0FDF8E7000012
:10D870001C9AFF1F10B50024002813D002780B4912
:10D88000002A03D14288CA8202790A760A78022ADB
:10D8900008D102780124002A06D000220A700078FC
:10D8A00000F078F9204610BD0322F7E70C9AFF1F1D
:10D8B00001494860704700004060FF1FF8B57C4C8C
:10D8C00087780146002507266079A2793B00FCF79E
:10D8D000D3FB0805381C3939619CD23848780028B8
:10D8E0005ED1734806223C30C91CFCF7FBFB0120CB
:10D8F000A0716278002A07D06D4B01214233607914
:10D90000FEF776FC00284BD1ABE00F4649780029A2
:10D9100046D1F978002906D0664BA2780021FEF79F
:10D9200067FC78700AE0022A0BD00121FCF7B2FCF8
:10D93000002803D101216079FCF7B6FB7878002834
:10D940002ED1F8BD497800292AD1032F09D0A28908
:10D95000002A0CD0217800290AD00121FCF7AAFB6B
:10D9600006E0052A01D0022012E0062010E0257012
:10D97000A079062802D0042802D008E0052007E09C
:10D980000120207001466079FCF78EFB69E00320DE
:10D99000A07166E048780F46002803D0312832D0C5
:10D9A000A6715EE042480622391D3630FCF79AFB2C
:10D9B0007889E081B8892082F88960820520A07189
:10D9C000A28A002A03D002216079FCF773FBB88990
:10D9D000E083F8892084388A6084E07801280AD1BD
:10D9E0001F20FEF763FA7D21C90048430246042147
:10D9F0006079FCF75FFB7A89F8780423391DFCF71E
:10DA0000EBFC25702DE02570C1E729480E46062263
:10DA100000213630FCF702FCE5832584658404216F
:10DA20006079FCF73BFB08216079FCF737FBB079A4
:10DA300008280BD00320A071607800280ED0207831
:10DA4000002805D06079FEF707FA07E00420F2E726
:10DA50000120207001466079FCF726FB0020C043BE
:10DA6000E081606A002800D16BE701680029FBD0E3
:10DA7000A0798847F8BD0D460821FCF70FFB6878B0
:10DA800029460028F6D1E888E0832889208448893F
:10DA9000608404216079FCF7FDFB0028EAD1A06ACC
:10DAA0000028E7D00368628C218CE08B9847F8BD92
:10DAB000F45DFF1F6A93FF1F10B501781C4C91297C
:10DAC00006D0A2291BD0D02901D1FFF7F7FE10BD47
:10DAD00041780E29FBD18188164A9142F7D181689D
:10DAE00003200856A1790529F1D17F28EFD0616A7A
:10DAF0000029ECD049680029E9D0884710BD417958
:10DB00001329FBD10089012802D12079022808D0ED
:10DB10000520FEF7CBF9024608216079FCF7CAFA26
:10DB200010BD08216079FCF7B9FAFEF765F910BD60
:10DB3000F45DFF1F051400007CB5154C0546E08B15
:10DB4000E18A88420AD3218B884207D8208C618BD6
:10DB5000884203D1608CA18B884217D00520FEF744
:10DB6000A5F90646E18A68460180218B4180618BD8
:10DB70008180A18BC18062796946E089FEF7ECFF64
:10DB80002571324608216079FCF794FA7CBD0000CB
:10DB9000F45DFF1F70B50F4D06462878FF2818D09A
:10DBA0000E20FCF7C5FB040013D0D0202070667057
:10DBB0000020A07006220849E01CFCF793FA0648F2
:10DBC0001038C18A6181007E207321462878FCF7D5
:10DBD0008BFB70BDB85FFF1F1C9AFF1FFFB581B0A4
:10DBE0001E4617460D460C20FCF7A2FB040013D07E
:10DBF000284601F095FE002810D00078D021217031
:10DC0000019961700721A170A580E78026810A999A
:10DC100061812146FCF768FB05B0F0BD0048ECE7E8
:10DC2000B85FFF1F70B50D4D044628680E460028EA
:10DC300012D00620FCF77CFB010009D0D020087030
:10DC40004C70032088708E8028680078FCF74CFBAD
:10DC5000002C01D0FFF74EFA70BD0000AC60FF1F32
:10DC6000FFB581B01F460E46084601F059FE05007B
:10DC700022D01020FCF75CFB04001DD010220021F4
:10DC8000FCF7CCFA2620FEF711F9002800D12878FD
:10DC9000D0212170019961700F21A170A680039994
:10DCA000217267720A99A1720B99E1720C99E16075
:10DCB000C0B22146FCF718FB05B0F0BDF0B51F4D12
:10DCC00085B02868002837D08778FEF767F90028E4
:10DCD00005D00A20FEF7EAF804900B200EE001F0D0
:10DCE00075F9002805D00620FEF7E0F8049007201B
:10DCF00004E00820FEF7DAF804900920FEF7D6F8D1
:10DD000004460F480078002814D001262968C878F6
:10DD1000091DFFF778F929686D46CA7A8B7A091DC3
:10DD20000BC5039233463A4621460498FCF75AFB4A
:10DD300005B0F0BD0026E9E70120F9E7AC60FF1F60
:10DD4000BA5FFF1F10B50949096800290CD00028E7
:10DD500005D101204870FCF7A3FA002802D0002169
:10DD6000FFF760FF012010BD002010BDAC60FF1F59
:10DD7000F8B50C4601F0D4FD020021D02620146233
:10DD8000FEF794F805062D0E00D115789679D01D72
:10DD900000901020176AFCF7CBFA040010D0D020B6
:10DDA0002070002060700920A070E6700622201DFF
:10DDB0000099FCF797F921462846E760FCF794FAAA
:10DDC000F8BD411E152903D9FF2801D00020704756
:10DDD0000120704770B50A4E054630780C46FF2882
:10DDE0000DD00420FCF7A4FA010008D0D020087060
:10DDF0004C7002208870CD703078FCF775FA70BDD9
:10DE00002460FF1FF3B5284D81B0286800284AD050
:10DE10004078264E012803D03078002831D041E0E8
:10DE200001F0D4F8224F002813D00120FEF73EF86D
:10DE30000446412808D91F4A02213878FCF742FAE3
:10DE40001D483C3C44800EE07D20C00022464243F9
:10DE500003E00020FEF72AF80246002A03D0022140
:10DE60003878FCF727F929680220487030780028B4
:10DE700002D00020307015E002990198FFF7D2FE21
:10DE800010E00320019CFCF753FA010008D0D020D9
:10DE900008704C700420887028680078FCF724FA19
:10DEA000FFF728F90120FEBDAC60FF1FBB5FFF1F1D
:10DEB0004160FF1F60EA00002460FF1F002903D0BB
:10DEC000054AD160002103E002207047491CC9B215
:10DED0008142FBD3002070471460FF1F002904D04B
:10DEE000034A107000205160704702207047000004
:10DEF0004C60FF1F30B5094A0021137809E095688E
:10DF00008C002C5B844202D18800401930BD491C32
:10DF1000C9B29942F3D3002030BD00005460FF1F06
:10DF200010B50C46FFF7E6FF00280DD0002C00D0FE
:10DF300020608078FE2803D0FF2803D0162010BD73
:10DF4000172010BD002010BD022010BDFFB581B00C
:10DF5000FF201E46174605300A9DFCF7E9F904002C
:10DF60001BD0B02020706770029860802671002D51
:10DF700006D02046FC2229460830FCF7B3F805E01D
:10DF80002046FC2200210830FCF748F92146019880
:10DF9000FCF7AAF9002005B0F0BD1320FBE7000054
:10DFA0000548172202800988172901D204207047EA
:10DFB0000180002070470000B45FFF1F0020704701
:10DFC00008B50A460888498888420BD8002809D035
:10DFD000002300931379521DFEF7B2FB002803D0F3
:10DFE000002008BD012008BD0A2008BDF3B50D467C
:10DFF00008884988002687B0814215D3002813D0AD
:10E00000002769460F710097002369881A46FEF7BA
:10E0100097FB04004FD068460079002807D0694676
:10E020004979012925D008E0012009B0F0BD217807
:10E0300002291BD002216A4651711222504301AAC3
:10E0400061898018418068460079122358438018FE
:10E050001022001D6168FCF745F868460079401CF5
:10E060000106090E684601711FD11AE001216A46B6
:10E070005171217802291ED1820001A861891218EC
:10E0800051806A4612796168920010180222001DC0
:10E09000FCF728F86A461079401CC0B210710528B8
:10E0A00003D261890A48814200D101266089401C5F
:10E0B00080B2002EA7D068460079002805D001A9BB
:10E0C0000798FDF773FA0020AFE70A20ADE70000DC
:10E0D000FFFF000038B50C4608884988884215D8EB
:10E0E000002813D02379621D02210B48FDF7E3F9C4
:10E0F00000280DD000200090237961882088621DBF
:10E10000FEF71EFB002805D0002038BD012038BDD9
:10E11000102038BD0A2038BD240E011108B50A466A
:10E120000888498888420BD8002809D0002300932A
:10E130001379521DFEF704FB002803D0002008BD10
:10E14000012008BD0A2008BDF8B500250F46064687
:10E150000C46E03717E06800205A0021FEF7CAFAA3
:10E16000002809D0017A3046FEF73FFC002808D08D
:10E170006900615A2180F8BD6800205A2080012082
:10E18000F8BD6D1CEDB2B87DA842E4D80020F8BD02
:10E1900010B5044608880021FEF7ACFA002804D028
:10E1A000017A2046FEF721FC10BD012010BD0000C1
:10E1B00030B585B005466946FDF786FA040026D1DC
:10E1C00068468078C1071E4809D08268002A04D0BA
:10E1D000688869469047044619E0062417E04268BB
:10E1E000002A05D0688869469047040001D10EE0F6
:10E1F000062468464078002809D168468178017372
:10E200000021C1810474688803A9FDF78FF9A8680B
:10E21000002801D0FCF7B0F8002C05D168468078C2
:10E22000122807D01B2803D068880121FEF7A4FC20
:10E2300005B030BD684640780128F5D1F8E7000008
:10E240006060FF1F70B505460C4608880021FEF788
:10E2500051FA002805D0017A22462846FEF7D8FB5D
:10E2600070BD012070BD000001494860704700008A
:10E270006060FF1F10B50446801C00F04DFDFF20BC
:10E28000E07010BD10B500F025F8002800D08068BF
:10E2900010BD00229300CB5A834202D19000401857
:10E2A0007047521CD2B2022AF4D3002070470000FB
:10E2B000074A0021CB00D35A834202D1C8008018FC
:10E2C0007047491C0906090EF4D000207047000071
:10E2D0001C5DFF1F0649896805E08A88824201D1DA
:10E2E0008868704709680029F7D10020704700004E
:10E2F0000C5DFF1FF8B50746012906D0022924D17D
:10E30000012101F0C5FB00281FD13846FFF7D0FFDF
:10E31000050015D000240D4E0CE0F820696860431C
:10E3200008180188002908D0F8220021FBF776FFA1
:10E33000641CE4B270788442EFD30020C04328808C
:10E34000024938461831FDF7C3FFF8BD0C5DFF1FC9
:10E35000F3B5064683B00830019000200090708825
:10E36000FFF7A6FF07002FD0002523E0F8207968EB
:10E3700068430C182188002920D0019800780128D2
:10E380000FD160880090A3887088A21DFEF764F901
:10E390000090002805D00199002008700498218879
:10E3A0000180F82200212046FBF738FF00206D1C79
:10E3B0002080EDB2074840788542D7D30020C04383
:10E3C00038800098002802D17088FDF7D9F80098AD
:10E3D00005B0F0BD0C5DFF1FF3B50546374C064692
:10E3E00085B00835F62200212046FBF717FF03A869
:10E3F00000902B79698828886A1DFEF7A1F90746E5
:10E4000046E02F4A708812684100515C0022C91F03
:10E41000CBB22C49029300910192284B69468A891C
:10E42000F63B3946FDF7B4FF002812D1254829896B
:10E43000001F828891420CD120492846F6390A30C3
:10E44000FBF756FE002804D0217878898900091945
:10E45000488068468289698804AB3846FEF7A2F98D
:10E4600007462078810009194A88002A10D0002F19
:10E4700005D06A46128A401C20708A800AE0010694
:10E480000022890DD2430919401C20708A8006E0C1
:10E49000002F04D00C48217800888142B1D3207825
:10E4A000002806D070882146FDF772F8002007B0DA
:10E4B000F0BD0698298801800A20F8E75A92FF1FCC
:10E4C000B05FFF1F105DFF1FAA5FFF1FF0B585B093
:10E4D000044600206946888120790E286BD00FDC25
:10E4E000082823D004DC022813D0062818D118E00D
:10E4F00025460835494F0A281DD00C2810D139E08F
:10E5000010285DD0122860D0162863D0182879D141
:10E5100065E044484249008808806088FDF710F8AB
:10E5200070E003A92046FFF757FF5CE003A92046EF
:10E5300000F080F957E0288804A9FEF7DBF8010015
:10E5400016D060883B6842009A5C354E521ED2B2AB
:10E5500000230193029200966A46B31C128AFDF7CB
:10E5600017FF00281ED160883146FDF7B1F949E058
:10E57000012017E0288804A9FEF7BCF80100F7D0B5
:10E5800060883B6842009A5C6B88521E244ED2B26F
:10E590000193029200966A46B31C128AFDF7F8FEB8
:10E5A000002803D029886A4691811CE060883146A2
:10E5B000FDF75EF926E003A9204600F0DDF912E040
:10E5C00003A9204600F082F80DE003A9204600F0E0
:10E5D00049FA08E003A9204600F028F803E003A95F
:10E5E0002046FFF7B5FE00280CD06178142909D029
:10E5F0000B4922790A706A4692894A8008716088BC
:10E60000FCF794FF2046FEF75DF80748C168002933
:10E6100001D02046884705B0F0BD0000B05FFF1F65
:10E620005A92FF1FA85FFF1F0C5DFF1FF8B504463D
:10E630000F460546083400896946FEF75BF8060078
:10E640003AD0307A80060ED568460088FFF71AFE69
:10E65000030006D06888122231469847060002D08F
:10E660002BE00E2629E06E883046FFF721FE0100E0
:10E6700005D11448FFF71CFE01000ED00E80124A8F
:10E680000020527807E0F8264B6846439B5B002B3E
:10E6900005D0401CC0B29042F5D309260DE0496870
:10E6A000F822504308182146FBF71CFD0026688815
:10E6B0002146FDF7D3F802E0012620883880304655
:10E6C000F8BD0000FFFF00000C5DFF1FF3B58BB02D
:10E6D00000200B9E0746039004A800903246337B2F
:10E6E00071893089504C0D320836FEF729F80546FD
:10E6F0007EE00B98297A4088FEF777F9070003D06F
:10E700000C986989018076E00B984849408809682F
:10E710004200895C464B891FC9B2009300220291D6
:10E720000192414B69460A8AF63B2946FDF730FEC5
:10E73000070003D00C99688908805CE003980028E2
:10E7400034D03B486188001F8088021D914255D11A
:10E75000039909180B984088420034480068805A91
:10E76000801F81424ADC0399A87A611808710398D6
:10E770006989401C80B22218090A401C117180B2BC
:10E7800003906846028A718807AB2846FEF70AF8AC
:10E79000050011D003986946898B201801710398F0
:10E7A0006946401C898B80B2090A0CE02048001F92
:10E7B0008088001D6080D6E70398FF212018017132
:10E7C0000398401C80B222181171401C80B2184975
:10E7D0000390091F8A8814492018F639001DFBF799
:10E7E00081FC13490398091F8988401880B203905F
:10E7F000002D00D07DE7039800280CD06188039895
:10E80000FBF79CFD20700B9821464088FDF73AF8F5
:10E8100000200DB0F0BD002F00D10A270C993088E0
:10E8200008803846F5E700005A92FF1FB05FFF1FCF
:10E83000105DFF1FF3B50746044608378BB04A4802
:10E840000490388800252E4605906CE007A80090BB
:10E850003B7979887A1D0598FDF772FF08900028AA
:10E8600054D0408905900898017A6088FEF7BDF879
:10E87000060060D13D49608809684200895C3C4BD4
:10E88000091FC9B20093002202910192364B6946DA
:10E890008A8BF63B0899FDF77BFD06004BD1002DD6
:10E8A00037D0049841883248001F8088801C8142FC
:10E8B00043D12F4B2D491B1F988809682A1860885F
:10E8C0004000085A001F824220DC08980499807A90
:10E8D0004919087108996D1C4989E8B20A0A049916
:10E8E00009180A71401CC5B2194604988A881E4945
:10E8F0004019F639001DFBF7F5FB1D481D49001FA7
:10E9000000792818C5B20598884209D1002D14D184
:10E9100023E017480499001F8088801C4880C8E7BE
:10E92000401C80B205906088410010480068405A41
:10E93000001FA8428ADA002D0DD00498418828468D
:10E94000FBF7FCFC0499087060880499FCF7A8FFA9
:10E9500000200DB0F0BD002E00D10A260C980599BC
:10E9600001803046F5E700005A92FF1FB05FFF1F9D
:10E97000105DFF1FFFFF0000F3B5064604460020B0
:10E9800085B0354D00900836288007463046E03087
:10E9900004904EE07800305A03A9FDF7ABFE010069
:10E9A0001BD060882E4B844642002C480068805C57
:10E9B0000093401EC0B2002202900192264B68468E
:10E9C0008289F63B6046FDF7E3FC009000280BD0FF
:10E9D0007800315A069801803BE0012000907800D1
:10E9E0000699305A088034E01D482988001F808825
:10E9F0000A186088430019480068C05A431E9A42AA
:10EA000004DD401A1649091F401E88802988A81C69
:10EA100008181349091F8A880F49F639FBF762FB6A
:10EA20000F482988001F8088081828807F1C0498B8
:10EA3000FFB2807DB84208D9608829884200074823
:10EA40000068805A401E8142A4DB60882946FCF79A
:10EA500035FF009807B0F0BD5A92FF1FB05FFF1F4F
:10EA6000105DFF1FF3B5054683B0044608350089E5
:10EA700001A9FDF73FFE2746E8370646002822D0C9
:10EA8000307A80060ED568468088FFF7FBFB0300CE
:10EA900006D06088122231469847060002D013E063
:10EAA0000E2611E0002000906B88298860882A1DBE
:10EAB000FDF7D2FD060007D1787E002807D16088D7
:10EAC000FCF730FF03E00126049829880180787E56
:10EAD000002802D0002005B0F0BD3046FBE7000062
:10EAE0000149C860002070470C5DFF1FF8B504465F
:10EAF0000246F82042431948002507464570103762
:10EB00007868002807D00020C100C919401C000601
:10EB10004D60000EF8D0124E00213046FBF77EFB10
:10EB2000002001466143C9B2F82251438B190B49B9
:10EB3000C200103152180021536005E0F8274F43FE
:10EB40005368491CDD53C9B2A142F7D3401C0006EB
:10EB5000000EE6D0014844700020F8BD0C5DFF1F98
:10EB60006C90FF1F7CB50C78069D022C0FD14C6871
:10EB70002678647824023419064EA4B2F44206D1F1
:10EB80000224DBB200950194FDF7BAFB7CBD0120A5
:10EB90007CBD0000FED6FFFFF8B505461D48854246
:10EBA00023D0461C002921D001292BD002291CD1B9
:10EBB0000121284600F06CFF002816D12846FFF7F7
:10EBC00099F9040011D0A078FF280ED0FE2807D0B4
:10EBD00000200090E0781E2314222946FFF7B6F9A2
:10EBE0002046FFF747FBFF20A070F8BD2846FFF73F
:10EBF00081F90028F9D13046FFF77CF90028F4D0DC
:10EC00000580F8BD2846FFF775F90400F9D0268085
:10EC1000D9E70000FEFF0000F3B50C468978C1B0CB
:10EC20001E2914D02E4D6878FF2829D0182927D8FE
:10EC30004808C2002B481218803A976F002F1FD047
:10EC4000D06F00281CD02078002817D113E04198FD
:10EC5000FFF750F905000BD000200090A378E8786A
:10EC600000224199FFF772F906462846FFF702FB9A
:10EC7000304643B0F0BD6278012A03D1122901D099
:10EC80000620F6E702AE0096A3886178A268B8472E
:10EC90000028EED1A0784008C1001248081880383A
:10ECA000C26F02A94198904700280FD061780029CF
:10ECB000DFD1A27869460A700871684601894180EF
:10ECC00069464198FCF732FC0020D2E7A378042B78
:10ECD000CFD00096002268784199FFF737F9C8E74E
:10ECE0005460FF1FC00D0111002904D0034A1070A9
:10ECF0000020916070470220704700005460FF1FA1
:10ED000000B50346FDF758FE002803D0C018401E8A
:10ED100080B200BD184600BD10B5040008D02078B0
:10ED2000FF2805D0FE2803D0FBF762FBFF202070F0
:10ED300010BD0000F7B506460F461020FBF7BCFAE1
:10ED400005461020FBF7B8FA0446002D3AD0002CF7
:10ED50002DD010220021FBF761FA2A4621463046C9
:10ED600000F0A2FF060023D12878000604D439461B
:10ED7000284600F075FD08E02146284600F070FDA9
:10ED80003A461149204601F0F3FF3878000604D4D2
:10ED90003846029900F064FD0AE02146384600F04A
:10EDA0005FFD09492046029A01F0E2FF00E01326C8
:10EDB0002846FBF793FA002C02D02046FBF78EFA88
:10EDC0003046FEBD1326F6E7630E0111F8B506982E
:10EDD00000271D4614460E46002801D00B20F8BD22
:10EDE00030780021022801D019804DE07068027847
:10EDF000407800021018152280B25202801A0300D7
:10EE0000FBF73AF90504121F1A254100F068FBF7D9
:10EE100089FAC2B20798824200D902462A80F16874
:10EE20002046FBF75FF930E0F06802210088298076
:10EE30002070000A607028E0062028800246F168F1
:10EE4000EEE701202880F068007820701DE0F0686F
:10EE5000002816D008212980017821700188090A2C
:10EE600061708178A1704188090AE170017921718E
:10EE70008188090A61718179A171C088000AE071F5
:10EE800003E0298001E0298001273846F8BD10B54C
:10EE90000B78840702D50224234301E0FD2423409C
:10EEA0000B7003070B7802D50824234301E0F724F5
:10EEB00023400B7083060B7802D52024234301E006
:10EEC000DF2423400B700A21084201D1810603D5BB
:10EED00010780C21084304E0002803D11078F321B6
:10EEE0000840107010BD0000FFB581B00878002404
:10EEF0000A9E1F460D4602280FD1686801784078A7
:10EF000000020818152180B24902401A09D00128D0
:10EF100029D0022848D003283CD00124204605B03F
:10EF2000F0BDE868FBF7FEF9C0B2864205D8F019DB
:10EF30000090152803D90D24F0E70724EEE7E868D0
:10EF40003A4680190399FBF7CDF80098EA6880B239
:10EF5000002111541C4840680028DFD001680029B6
:10EF6000DCD0002012E0002E12D1022BE3D1039955
:10EF7000E8680A7849780902511801801248406807
:10EF80000028CBD001680029C8D001208847C5E7F8
:10EF90000B24C3E7002EFBD1062BCCD10622E86858
:10EFA0000399FBF79FF8B9E7002EF1D1012BC2D1ED
:10EFB00003980078002803D0012801D08024ADE711
:10EFC000E9680870AAE70000705DFF1F08B50948EE
:10EFD0008368002B0CD01A78694601205B1CFEF771
:10EFE00064F8002804D00078C00701D0012008BDD3
:10EFF000002008BD2460FF1F10B503460B4A002007
:10F000000A21414389184988002905D0401CC0B213
:10F010000328F5D3002010BD0A2100244143545495
:10F020000446403488184480037210BD389AFF1F8C
:10F030000A7802700A88120A42708A7882704A88B6
:10F04000120AC2700A7902718A88120A42718A7998
:10F050008271C988090AC17108207047F8B5044651
:10F060000D4648680421FBF79FF9297A0170298928
:10F070000346401C090A0170297841702988090A51
:10F080008170287A001DC2B2FB2A38D81D488442FC
:10F0900015D115461E460C20FBF74AF901000CD08D
:10F0A00090200870022008714C808E601648CD8038
:10F0B0000078FBF719F900271FE013271DE05C20FB
:10F0C0002546124E4543B06829185820405C002858
:10F0D0000BD00F480727416A491C4162B0682918C4
:10F0E0005820405C002805D007E0204600F092F947
:10F0F0000746F3E72046FBF781F93846F8BD0220C2
:10F10000F8BD0000FEFF00006D60FF1F7060FF1F74
:10F11000589AFF1F10B50A4A00210A234B439B1837
:10F120005C88002C06D01B79834203D10A2041431E
:10F13000881810BD491CC9B20329EED3002010BDA8
:10F14000389AFF1F002141800170704770477CB5DD
:10F1500004000FD0608800280CD000250095019590
:10F160001323E188207A172200F028F8FF2060722C
:10F17000658025707CBDF8B5074615460E46102003
:10F18000FBF7D6F8040017D0A02020700020607094
:10F190006680002D05D00C222946201DFAF7A2FF1B
:10F1A00004E00C220021201DFBF738F821463846E8
:10F1B000FBF79AF80020F8BD0120F8BDFFB581B03B
:10F1C0001E46174614200B9DFBF7B2F804001AD018
:10F1D000A22020706770029860800A982071667182
:10F1E000002D06D020460C2229460830FAF77AFF77
:10F1F00005E020460C2200210830FBF70FF82146DD
:10F200000198FBF771F805B0F0BD022A1CD34B78CA
:10F210000A781B02D21892B20280012A02D0022A76
:10F2200006D00FE08A78C97809025118418009E0B8
:10F23000CB788A781B02D21842800A794979090270
:10F24000511881800020704701207047F8B50646AC
:10F250004F88002070600C46097961488C464068F0
:10F2600002290FD03D01425B002A06D029188B6885
:10F27000002B02D06346012B7ED05A484169491CBD
:10F280004161A8E0E288042A40D3A1684D780B7858
:10F290002D025B199BB20093CD788B782D025B1900
:10F2A0009DB20B7AC979090259184D4B5980009BC0
:10F2B0001B1D9A421ED1072D11D0052D0FD0042DF4
:10F2C00002D0062D22D10AE03901405A002806D08A
:10F2D0003846FDF7B7FC43480169491C01610098B5
:10F2E000308135800321C943A068FBF75DF8706069
:10F2F0000020F8BD072D15D0052D13D0042D06D004
:10F30000062D0FD03748C168491CC16066E039013D
:10F31000405A002806D03846FDF794FC3148016970
:10F32000491C01613E012E4F0020796888537118F5
:10F33000009888817868301885800098FDF724FD52
:10F34000796871188860002819D00321C943A06822
:10F35000FBF72AF801467868E28830188068121FA7
:10F36000FAF7C0FE7868E288815B8918091F81532B
:10F370001C480168491C00E006E001602EE01948C5
:10F380008169491C816129E0E388D21892B2425315
:10F39000888982421BD88868114F8018E288A1684A
:10F3A000801AFAF79FFE7868425B291888898242A2
:10F3B00014D1308188883080786829188968716014
:10F3C0000021415307484168491C416006E0054857
:10F3D0008168491C81603846FDF734FC0120F8BD86
:10F3E0007060FF1F589AFF1F022A01D0012070474A
:10F3F0000A784978090251180180002070470A787C
:10F4000002704A7842708A78C9780902511841809E
:10F4100070470000FFB50C4607463D49A12080001B
:10F42000096878434018FF30C130067E89B0154620
:10F430003846FCF7CFF8001DB04204D23846FCF73E
:10F44000C9F8001DC6B2B54207D82A460021384681
:10F450000C9BFAF7D9FF0DB0F0BD31462846FAF7FC
:10F460006DFF2746403738740C996165014671433A
:10F47000691AC9B202910C9904910299002901D02C
:10F48000401C3874002523E00299002904D0401E56
:10F49000A84201D1084600E03046E90005910391F9
:10F4A0006054FDF765FB03990919486000281BD0DB
:10F4B0000599625C0499FAF715FE0598215C049899
:10F4C000081804901348C169491C6D1CEDB2C16154
:10F4D000387CA842D8D8606D002803D0FAF74CFFDA
:10F4E000002060650020B6E700203874064660659D
:10F4F00006E0F00000194068FAF73EFF761CF6B20D
:10F50000AE42F6D30348C16A491CC1621320A2E788
:10F510003409FF1F589AFF1FF7B586B016460D46EF
:10F520004878FFF7F7FD040010D0002727712878EE
:10F53000012802D0132809D105E06A88314602A8C3
:10F54000FFF763FE0AE02078032802D0002009B00C
:10F55000F0BD6A88314602A8FFF746FF06462046FE
:10F5600000F064F902A8019000972B78207A3246C7
:10F570000699FFF723FE2046FFF7E4FD3046E6E755
:10F58000FEB50446468801466846FFF75FFE05461D
:10F59000019800282FD068460088052806D0042846
:10F5A00009D0062807D0072805D026E0694630464E
:10F5B00000F030F821E08100154808180146403974
:10F5C000098E002919D02038807C6A463146FFF721
:10F5D000D2FD002811D168460088042803D00121FB
:10F5E0003046FDF7C9FA012D04D1A068002801D0EA
:10F5F000FAF7C2FEFEBD012D04D1A068002801D09B
:10F60000FAF7BAFE01213046FDF7B6FAFEBD00005A
:10F61000289AFF1F30B50546088987B00C46042894
:10F6200017D302A86168FFF7EAFE684640891728E9
:10F6300037D82189001D81421ED16846007AC10752
:10F6400009D0626802A92846121DFFF765FF00284D
:10F6500012D107B030BD6168091D122805D0002005
:10F6600069460880497A6A4622E06846428903A8CA
:10F67000FDF7B4FA002803D02846FFF767FDE8E756
:10F680000D4881880029E4D06946497A03AA01928D
:10F69000009169460B7A807900222946FFF78EFD9A
:10F6A000D7E701216846018017214180417A6A46E7
:10F6B0002846FDF745FACCE7289AFF1FF8B5002544
:10F6C000214C3BE0606800262F01C6533818868124
:10F6D000606838188680606838188068002804D010
:10F6E000FAF74AFE606838188660374630465C2173
:10F6F0002E464E43A168711840310874A1687118F4
:10F7000040314874A168711840310876A0683018FB
:10F71000406D002804D0FAF72FFEA16871184F65DC
:10F720000027A068F900301840184068002801D070
:10F73000FAF722FE7F1C0A2FF3DB6D1C03480078CA
:10F740008542BFDBF8BD00007060FF1F7C60FF1FBB
:10F75000FFB589B015460E461720129FFDF714FB22
:10F76000040021D0684606704570002F03D0201D8C
:10F770000C99B84700E00020694648802670657003
:10F780004888A070010AE170052269468A82001D3E
:10F790000694888305A90998FFF760FC050004D04A
:10F7A0002046FAF7E9FD00E0132528460DB0F0BD2C
:10F7B000FFB581B01E46054601210A9F0B9C00F053
:10F7C00067F9002811D02046FFF716FC00280AD060
:10F7D000C5800446077012484178491C0A06120E7B
:10F7E000427004D005E015250FE014250DE001223C
:10F7F0004270227100962846039B0299FFF7A8FFEA
:10F80000050005D02046FFF79DFC284605B0F0BD59
:10F8100023462146034A09330348FAF7FBFDF4E780
:10F820007060FF1F307500004FF1001110B50446E5
:10F83000407AFAF7DDFDFF20607210BD00280AD083
:10F84000102808D8002906D0002A04D00348826076
:10F850004160002070470220704700007060FF1F69
:10F8600010B500240F22835C5B0023438B54835C20
:10F87000521EDC0952B2002AF5DA10BDFFB581B084
:10F880001E4617460D46084600F04AF8002802D0EA
:10F89000112005B0F0BD0E4800F042F8040015D06C
:10F8A0000A98A0710622E01D0B99FAF71BFC6580EF
:10F8B0002771667101982070002060620C98E081C9
:10F8C0000021284600F0F6F80020E2E71520E0E7E6
:10F8D000FFFF000070B514460D46064600F020F804
:10F8E00000280BD0416A007900290CD0C20611D53E
:10F8F00080070AD4002C08D0052070BD0748864236
:10F900000AD0142070BDC006F6D5887EA84203D266
:10F910000C2070BD0F2070BD002070BDFEFF0000E8
:10F9200030B50A4A002113780CE0282455684C436E
:10F9300064196488844203D128204143481930BDAA
:10F94000491CC9B29942F0D3002030BD7C60FF1F32
:10F95000F0B50C4B00210C4E1D780FE028225C689E
:10F960004A4317197F88B74206D0A25C824203D16E
:10F97000282041430819F0BD491CC9B2A942EDD362
:10F980000020F0BD7C60FF1FFFFF000070B5104934
:10F9900000200C7802460F4E0CE028234D684343AC
:10F9A0005D196E804D685D192A714D685B19401CA8
:10F9B000C0B25A62A042F0D38B680020497803E0BD
:10F9C0008400401C1A51C0B28842F9D370BD0000B7
:10F9D0007C60FF1FFFFF000000280DD010280BD80F
:10F9E000002909D0002A07D0044B1870001D587058
:10F9F0009A60002059607047182070477C60FF1F94
:10FA000010B5094A002053680146127809E02824FD
:10FA10004C43E4182479002C01D0401CC0B2491C8E
:10FA2000C9B29142F3D310BD7C60FF1F30B5094AC3
:10FA30000021537806E095688C002C59002C05D0E5
:10FA4000491CC9B29942F6D3132030BD89006850D1
:10FA5000002030BD7C60FF1F10B5FFF761FF040080
:10FA600013D06088012100F025F8606A002801D0D9
:10FA7000FAF734FC282200212046FAF7CFFB0020B9
:10FA8000C04360800020207110BD022010BD000026
:10FA900010B50C460649884206D0FFF741FF002802
:10FAA00004D00079204201D0012010BD002010BDFB
:10FAB000FEFF0000F8B50E4607460024074D09E09A
:10FAC000A968A0000A58002A02D03146384690475B
:10FAD000641CE4B268788442F2D3F8BD7C60FF1FF6
